{
  "_format": "hh-sol-artifact-1",
  "contractName": "Softlaw",
  "sourceName": "contracts/recipes/Softlaw.sol",
  "abi": [
    {
      "inputs": [],
      "stateMutability": "payable",
      "type": "constructor"
    },
    {
      "anonymous": false,
      "inputs": [
        {
          "indexed": false,
          "internalType": "address",
          "name": "collectionAddress",
          "type": "address"
        }
      ],
      "name": "CollectionCreated",
      "type": "event"
    },
    {
      "anonymous": false,
      "inputs": [
        {
          "indexed": true,
          "internalType": "uint256",
          "name": "assetId",
          "type": "uint256"
        },
        {
          "indexed": true,
          "internalType": "enum Softlaw.IPType",
          "name": "ipType",
          "type": "uint8"
        },
        {
          "indexed": true,
          "internalType": "address",
          "name": "collectionAddress",
          "type": "address"
        },
        {
          "indexed": false,
          "internalType": "address",
          "name": "owner",
          "type": "address"
        }
      ],
      "name": "IPAssetRegistered",
      "type": "event"
    },
    {
      "inputs": [
        {
          "internalType": "uint256",
          "name": "_licenseId",
          "type": "uint256"
        }
      ],
      "name": "CompleteLicense",
      "outputs": [
        {
          "internalType": "uint256",
          "name": "",
          "type": "uint256"
        }
      ],
      "stateMutability": "view",
      "type": "function"
    },
    {
      "inputs": [
        {
          "internalType": "string",
          "name": "_name",
          "type": "string"
        },
        {
          "internalType": "string",
          "name": "_description",
          "type": "string"
        },
        {
          "internalType": "string",
          "name": "_symbol",
          "type": "string"
        },
        {
          "internalType": "string",
          "name": "_collectionCover",
          "type": "string"
        },
        {
          "components": [
            {
              "internalType": "bool",
              "name": "token_owner",
              "type": "bool"
            },
            {
              "internalType": "bool",
              "name": "collection_admin",
              "type": "bool"
            },
            {
              "internalType": "address[]",
              "name": "restricted",
              "type": "address[]"
            }
          ],
          "internalType": "struct CollectionNestingAndPermission",
          "name": "nesting_settings",
          "type": "tuple"
        },
        {
          "components": [
            {
              "internalType": "address",
              "name": "eth",
              "type": "address"
            },
            {
              "internalType": "uint256",
              "name": "sub",
              "type": "uint256"
            }
          ],
          "internalType": "struct CrossAddress",
          "name": "_owner",
          "type": "tuple"
        }
      ],
      "name": "mintSoftlawCollection",
      "outputs": [
        {
          "internalType": "address",
          "name": "",
          "type": "address"
        }
      ],
      "stateMutability": "payable",
      "type": "function"
    },
    {
      "inputs": [
        {
          "internalType": "string",
          "name": "_name",
          "type": "string"
        },
        {
          "internalType": "string",
          "name": "_description",
          "type": "string"
        },
        {
          "internalType": "enum Softlaw.IPType",
          "name": "_ipType",
          "type": "uint8"
        },
        {
          "internalType": "string",
          "name": "_contentHash",
          "type": "string"
        },
        {
          "internalType": "string",
          "name": "_jurisdiction",
          "type": "string"
        },
        {
          "internalType": "string",
          "name": "_details",
          "type": "string"
        },
        {
          "internalType": "string",
          "name": "_image",
          "type": "string"
        },
        {
          "internalType": "address",
          "name": "_collectionAddress",
          "type": "address"
        }
      ],
      "name": "mintSoftlawLicense",
      "outputs": [
        {
          "internalType": "uint256",
          "name": "",
          "type": "uint256"
        }
      ],
      "stateMutability": "nonpayable",
      "type": "function"
    },
    {
      "inputs": [
        {
          "internalType": "address",
          "name": "_collectionAddress",
          "type": "address"
        },
        {
          "internalType": "string",
          "name": "_image",
          "type": "string"
        },
        {
          "internalType": "string",
          "name": "_name",
          "type": "string"
        },
        {
          "internalType": "string",
          "name": "_description",
          "type": "string"
        },
        {
          "components": [
            {
              "internalType": "string",
              "name": "trait_type",
              "type": "string"
            },
            {
              "internalType": "string",
              "name": "value",
              "type": "string"
            }
          ],
          "internalType": "struct Attribute[]",
          "name": "_attributes",
          "type": "tuple[]"
        },
        {
          "components": [
            {
              "internalType": "address",
              "name": "eth",
              "type": "address"
            },
            {
              "internalType": "uint256",
              "name": "sub",
              "type": "uint256"
            }
          ],
          "internalType": "struct CrossAddress",
          "name": "_tokenOwner",
          "type": "tuple"
        }
      ],
      "name": "mintSoftlawToken",
      "outputs": [],
      "stateMutability": "nonpayable",
      "type": "function"
    },
    {
      "inputs": [
        {
          "internalType": "uint256",
          "name": "",
          "type": "uint256"
        }
      ],
      "name": "softlawRegistry",
      "outputs": [
        {
          "internalType": "enum Softlaw.IPType",
          "name": "ipType",
          "type": "uint8"
        },
        {
          "internalType": "address",
          "name": "owner",
          "type": "address"
        },
        {
          "internalType": "string",
          "name": "contentHash",
          "type": "string"
        },
        {
          "internalType": "uint256",
          "name": "registrationDate",
          "type": "uint256"
        },
        {
          "internalType": "bool",
          "name": "verified",
          "type": "bool"
        },
        {
          "internalType": "string",
          "name": "jurisdiction",
          "type": "string"
        },
        {
          "internalType": "bool",
          "name": "active",
          "type": "bool"
        },
        {
          "internalType": "address",
          "name": "collectionAddress",
          "type": "address"
        },
        {
          "internalType": "string",
          "name": "details",
          "type": "string"
        }
      ],
      "stateMutability": "view",
      "type": "function"
    },
    {
      "stateMutability": "payable",
      "type": "receive"
    }
  ],
  "bytecode": "0x60806040526200000e6200002d565b6200001862000027565b614cb1620002718239614cb190f35b60405190565b6200003d6001806000916200003f565b565b906200004c92916200022a565b565b601f801991011690565b634e487b7160e01b600052604160045260246000fd5b906200007a906200004e565b810190811060018060401b038211176200009357604052565b62000058565b90620000b0620000a862000027565b92836200006e565b565b620000be606062000099565b90565b151590565b90620000d290620000c1565b9052565b620000e29051620000c1565b90565b60001b90565b90620000f960ff91620000e5565b9181191691161790565b6200010e90620000c1565b90565b90565b906200012e62000128620001369262000103565b62000111565b8254620000eb565b9055565b60081b90565b906200014f61ff00916200013a565b9181191691161790565b90620001736200016d6200017b9262000103565b62000111565b825462000140565b9055565b60101b90565b906200019562ff0000916200017f565b9181191691161790565b90620001b9620001b3620001c19262000103565b62000111565b825462000185565b9055565b9062000213604060006200021a94620001ee828201620001e7848801620000d6565b9062000114565b6200020a8282016200020360208801620000d6565b9062000159565b019201620000d6565b906200019f565b565b906200022891620001c5565b565b6200026e926200025c6200026692936200025262000247620000b2565b9560008701620000c6565b60208501620000c6565b60408301620000c6565b60006200021c565b56fe60806040526004361015610015575b36610c9957005b61002060003561006f565b8063173bdf881461006a5780633517860f1461006557806357b6b714146100605780636139a3af1461005b5763831196050361000e57610c5f565b610a40565b610797565b61038e565b61030c565b60e01c90565b60405190565b600080fd5b600080fd5b600080fd5b600080fd5b600080fd5b601f801991011690565b634e487b7160e01b600052604160045260246000fd5b906100be90610094565b810190811067ffffffffffffffff8211176100d857604052565b61009e565b906100f06100e9610075565b92836100b4565b565b67ffffffffffffffff81116101105761010c602091610094565b0190565b61009e565b90826000939282370152565b90929192610136610131826100f2565b6100dd565b938185526020850190828401116101525761015092610115565b565b61008f565b9080601f830112156101755781602061017293359101610121565b90565b61008a565b6004111561018457565b600080fd5b905035906101968261017a565b565b60018060a01b031690565b6101ac90610198565b90565b6101b8816101a3565b036101bf57565b600080fd5b905035906101d1826101af565b565b9190610100838203126102e157600083013567ffffffffffffffff81116102dc5781610200918501610157565b92602081013567ffffffffffffffff81116102d75782610221918301610157565b9261022f8360408401610189565b92606083013567ffffffffffffffff81116102d25781610250918501610157565b92608081013567ffffffffffffffff81116102cd5782610271918301610157565b9260a082013567ffffffffffffffff81116102c85783610292918401610157565b9260c08301359067ffffffffffffffff82116102c3576102b7816102c0938601610157565b9360e0016101c4565b90565b610085565b610085565b610085565b610085565b610085565b610085565b610080565b90565b6102f2906102e6565b9052565b919061030a906000602085019401906102e9565b565b34610346576103426103316103223660046101d3565b969590959491949392936111cf565b610339610075565b918291826102f6565b0390f35b61007b565b610354816102e6565b0361035b57565b600080fd5b9050359061036d8261034b565b565b906020828203126103895761038691600001610360565b90565b610080565b346103be576103ba6103a96103a436600461036f565b611347565b6103b1610075565b918291826102f6565b0390f35b61007b565b90565b6103da6103d56103df926102e6565b6103c3565b6102e6565b90565b906103ec906103c6565b600052602052604060002090565b60001c90565b60ff1690565b610412610417916103fa565b610400565b90565b6104249054610406565b90565b60081c90565b60018060a01b031690565b61044461044991610427565b61042d565b90565b6104569054610438565b90565b634e487b7160e01b600052602260045260246000fd5b906001600283049216801561048f575b602083101461048a57565b610459565b91607f169161047f565b60209181520190565b600052602060002090565b90600092918054906104c86104c18361046f565b8094610499565b9160018116908160001461052157506001146104e4575b505050565b6104f191929394506104a2565b916000925b81841061050957505001903880806104df565b600181602092959395548486015201910192906104f6565b92949550505060ff19168252151560200201903880806104df565b90610546916104ad565b90565b9061056961056292610559610075565b9384809261053c565b03836100b4565b565b90565b61057a61057f916103fa565b61056b565b90565b61058c905461056e565b90565b60ff1690565b6105a16105a6916103fa565b61058f565b90565b6105b39054610595565b90565b6105c19060036103e2565b6105cd6000820161041a565b916105da6000830161044c565b916105e760018201610549565b916105f460028301610582565b91610601600382016105a9565b9161060e60048301610549565b9161061b600582016105a9565b91610634600661062d6005850161044c565b9301610549565b90565b634e487b7160e01b600052602160045260246000fd5b6004111561065757565b610637565b906106668261064d565b565b6106719061065c565b90565b61067d90610668565b9052565b61068a906101a3565b9052565b5190565b60209181520190565b60005b8381106106af575050906000910152565b80602091830151818501520161069e565b6106df6106e86020936106ed936106d68161068e565b93848093610692565b9586910161069b565b610094565b0190565b151590565b6106ff906106f1565b9052565b956107646107869661075a61074f6107949d9b9c989561077c986107416107719960208f61073a6101208201966000830190610674565b0190610681565b8c60408184039101526106c0565b9460608b01906102e9565b60808901906106f6565b86820360a08801526106c0565b9560c08501906106f6565b60e0830190610681565b6101008184039101526106c0565b90565b346107d1576107cd6107b26107ad36600461036f565b6105b6565b956107c4999799959195949294610075565b998a998a610703565b0390f35b61007b565b600080fd5b600080fd5b6107e9816106f1565b036107f057565b600080fd5b90503590610802826107e0565b565b67ffffffffffffffff811161081c5760208091020190565b61009e565b600080fd5b9092919261083b61083682610804565b6100dd565b938185526020808601920283019281841161087857915b83831061085f5750505050565b6020809161086d84866101c4565b815201920191610852565b610821565b9080601f8301121561089b5781602061089893359101610826565b90565b61008a565b919091606081840312610906576108b760606100dd565b926108c581600084016107f5565b60008501526108d781602084016107f5565b6020850152604082013567ffffffffffffffff8111610901576108fa920161087d565b6040830152565b6107db565b6107d6565b9190604083820312610947576109409061092560406100dd565b9361093382600083016101c4565b6000860152602001610360565b6020830152565b6107d6565b909160e082840312610a2557600082013567ffffffffffffffff8111610a205783610978918401610157565b92602083013567ffffffffffffffff8111610a1b5781610999918501610157565b92604081013567ffffffffffffffff8111610a1657826109ba918301610157565b92606082013567ffffffffffffffff8111610a1157836109db918401610157565b9260808301359067ffffffffffffffff8211610a0c57610a0081610a099386016108a0565b9360a00161090b565b90565b610085565b610085565b610085565b610085565b610085565b610080565b9190610a3e90600060208501940190610681565b565b610a6e610a5d610a5136600461094c565b949390939291926116df565b610a65610075565b91829182610a2a565b0390f35b67ffffffffffffffff8111610a8a5760208091020190565b61009e565b919091604081840312610afb57610aa660406100dd565b92600082013567ffffffffffffffff8111610af65781610ac7918401610157565b6000850152602082013567ffffffffffffffff8111610af157610aea9201610157565b6020830152565b6107db565b6107db565b6107d6565b929190610b14610b0f82610a72565b6100dd565b9381855260208086019202810191838311610b6b5781905b838210610b3a575050505050565b813567ffffffffffffffff8111610b6657602091610b5b8784938701610a8f565b815201910190610b2c565b61008a565b610821565b9080601f83011215610b8e57816020610b8b93359101610b00565b90565b61008a565b909160e082840312610c5457610bac83600084016101c4565b92602083013567ffffffffffffffff8111610c4f5781610bcd918501610157565b92604081013567ffffffffffffffff8111610c4a5782610bee918301610157565b92606082013567ffffffffffffffff8111610c455783610c0f918401610157565b9260808301359067ffffffffffffffff8211610c4057610c3481610c3d938601610b70565b9360a00161090b565b90565b610085565b610085565b610085565b610085565b610080565b60000190565b34610c9457610c7e610c72366004610b93565b94939093929192611a93565b610c86610075565b80610c9081610c59565b0390f35b61007b565b600080fd5b600090565b90565b610cba610cb5610cbf92610ca3565b6103c3565b6102e6565b90565b634e487b7160e01b600052601160045260246000fd5b610ce7610ced919392936102e6565b926102e6565b8201809211610cf857565b610cc2565b610d0760406100dd565b90565b600090565b600090565b610d1c610cfd565b9060208083610d29610d0a565b815201610d34610d0f565b81525050565b610d42610d14565b90565b90610d4f906101a3565b9052565b610d5e6101206100dd565b90565b90610d6b9061065c565b9052565b52565b90610d7c906102e6565b9052565b90610d8a906106f1565b9052565b610d98905161065c565b90565b60001b90565b90610dad60ff91610d9b565b9181191691161790565b610dc09061065c565b90565b90565b90610ddb610dd6610de292610db7565b610dc3565b8254610da1565b9055565b610df090516101a3565b90565b60081b90565b90610e0c610100600160a81b0391610df3565b9181191691161790565b610e2a610e25610e2f92610198565b6103c3565b610198565b90565b610e3b90610e16565b90565b610e4790610e32565b90565b90565b90610e62610e5d610e6992610e3e565b610e4a565b8254610df9565b9055565b5190565b601f602091010490565b1b90565b91906008610e9b910291610e9560001984610e7b565b92610e7b565b9181191691161790565b90565b9190610ebe610eb9610ec6936103c6565b610ea5565b908354610e7f565b9055565b610edc91610ed6610c9e565b91610ea8565b565b5b818110610eea575050565b80610ef86000600193610eca565b01610edf565b9190601f8111610f0e575b505050565b610f1a610f3f936104a2565b906020610f2684610e71565b83019310610f47575b610f3890610e71565b0190610ede565b388080610f09565b9150610f3881929050610f2f565b1c90565b90610f6a9060001990600802610f55565b191690565b81610f7991610f59565b906002021790565b90610f8b8161068e565b9067ffffffffffffffff821161104d57610faf82610fa9855461046f565b85610efe565b602090601f8311600114610fe457918091610fd393600092610fd8575b5050610f6f565b90555b565b90915001513880610fcc565b601f19831691610ff3856104a2565b9260005b8181106110355750916002939185600196941061101b575b50505002019055610fd6565b61102b910151601f841690610f59565b905538808061100f565b91936020600181928787015181550195019201610ff7565b61009e565b9061105c91610f81565b565b61106890516102e6565b90565b9061107860001991610d9b565b9181191691161790565b9061109761109261109e926103c6565b610ea5565b825461106b565b9055565b6110ac90516106f1565b90565b6110b8906106f1565b90565b90565b906110d36110ce6110da926110af565b6110bb565b8254610da1565b9055565b906111bb61010060066111c194611104600082016110fe60008801610d8e565b90610dc6565b61111d6000820161111760208801610de6565b90610e4d565b6111366001820161113060408801610e6d565b90611052565b61114f600282016111496060880161105e565b90611082565b61116860038201611162608088016110a2565b906110be565b6111816004820161117b60a08801610e6d565b90611052565b61119a6005820161119460c088016110a2565b906110be565b6111b3600582016111ad60e08801610de6565b90610e4d565b019201610e6d565b90611052565b565b906111cd916110de565b565b90969591966111dc610c9e565b506111e76001610582565b60016111f290610ca6565b6111fb91610cd8565b508785879061120992611d33565b611211610d3a565b9133836000019061122191610d45565b88949390919293611231956122a3565b92859233929042906000909160019389959661124b610d53565b9860008a019061125a91610d61565b602089019061126891610d45565b604088019061127691610d6f565b606087019061128491610d72565b608086019061129291610d80565b60a08501906112a091610d6f565b60c08401906112ae91610d80565b60e08301906112bc91610d45565b6101008201906112cb91610d6f565b6003826112d7916103e2565b906112e1916111c3565b9133927f497812c29732ffbf098354279a0a526047ca7d048af4a1e123256203e8637e8f9061130f906103c6565b9161131990610db7565b9261132390610e3e565b9361132c610075565b611337819282610a2a565b0390a46113446001610582565b90565b50611350610c9e565b5061135b6001610ca6565b90565b600090565b90565b61137a61137561137f92611363565b6103c3565b6102e6565b90565b67ffffffffffffffff811161139a5760208091020190565b61009e565b906113b16113ac83611382565b6100dd565b918252565b6113c060406100dd565b90565b600090565b6113d06113b6565b90602080836113dd6113c3565b8152016113e8610d0f565b81525050565b6113f66113c8565b90565b60005b82811061140857505050565b6020906114136113ee565b81840152016113fc565b9061144261142a8361139f565b926020806114388693611382565b92019103906113f9565b565b67ffffffffffffffff811161145c5760208091020190565b61009e565b9061147361146e83611444565b6100dd565b918252565b61148260406100dd565b90565b606090565b606090565b611497611478565b90602080836114a4611485565b8152016114af61148a565b81525050565b6114bd61148f565b90565b60005b8281106114cf57505050565b6020906114da6114b5565b81840152016114c3565b906115096114f183611461565b926020806114ff8693611444565b92019103906114c0565b565b67ffffffffffffffff81116115235760208091020190565b61009e565b9061153a6115358361150b565b6100dd565b918252565b61154960406100dd565b90565b606090565b61155961153f565b9060208083611566611485565b81520161157161154c565b81525050565b61157f611551565b90565b60005b82811061159157505050565b60209061159c611577565b8184015201611585565b906115cb6115b383611528565b926020806115c1869361150b565b9201910390611582565b565b6115d690610e16565b90565b6115e2906115cd565b90565b6115ee90610e32565b90565b6115fa90610e32565b90565b61160760406100dd565b90565b600080fd5b60e01b90565b600091031261162057565b610080565b61162e906101a3565b9052565b61163b906102e6565b9052565b906020806116639361165960008201516000860190611625565b0151910190611632565b565b91906116799060006040850194019061163f565b565b611683610075565b3d6000823e3d90fd5b9061169690610e3e565b600052602052604060002090565b906116b560018060a01b0391610d9b565b9181191691161790565b906116d46116cf6116db92610e3e565b610e4a565b82546116a4565b9055565b93611731949391936116ef61135e565b509392916117056117006000611366565b61141d565b926117186117136000611366565b6114e4565b9461172b6117266000611366565b6115a6565b96612cf2565b9061173b826115d9565b611744816115e5565b6384a1d5a8611752306115f1565b61177d611774600061176f6117656115fd565b9460008601610d45565b611366565b60208301610d72565b823b15611a0b576117ae926117a360008094611797610075565b9687958694859361160f565b835260048301611665565b03925af18015611a06576119d9575b506117c7816115e5565b633c50e97a90803b156119d4576117eb916000916117e3610075565b93849261160f565b82528183816117fc60048201610c59565b03925af180156119cf576119a2575b50611815816115e5565b9063859aa7d6611824306115f1565b61184f61184660006118416118376115fd565b9460008601610d45565b611366565b60208301610d72565b833b1561199d576118809361187560008094611869610075565b9788958694859361160f565b835260048301611665565b03925af19182156119985761189a9261196b575b506115e5565b90636496c49790823b15611966576118d2926118c7600080946118bb610075565b9687958694859361160f565b835260048301611665565b03925af1801561196157611934575b506118f7336118f26002849061168c565b6116bf565b8061192e7f75432e2e509efcaf947efcc7a5a6b6b3562425b29e9725c7a4a5c652291ac35d91611925610075565b91829182610a2a565b0390a190565b6119549060003d811161195a575b61194c81836100b4565b810190611615565b386118e1565b503d611942565b61167b565b61160a565b61198b9060003d8111611991575b61198381836100b4565b810190611615565b38611894565b503d611979565b61167b565b61160a565b6119c29060003d81116119c8575b6119ba81836100b4565b810190611615565b3861180b565b503d6119b0565b61167b565b61160a565b6119f99060003d81116119ff575b6119f181836100b4565b810190611615565b386117bd565b503d6119e7565b61167b565b61160a565b611a1c611a21916103fa565b61042d565b90565b611a2e9054611a10565b90565b15611a3857565b600080fd5b90611a7a9594939291611a7581611a6f611a69611a64611a5f3394600261168c565b611a24565b6101a3565b916101a3565b14611a31565b611a7c565b565b91611a9095939194929490919293946122a3565b50565b90611aa19594939291611a3d565b565b606090565b90565b611abf611aba611ac492611aa8565b6103c3565b6102e6565b90565b90611ad9611ad483610a72565b6100dd565b918252565b611ae860406100dd565b90565b611af3611ade565b9060208083611b00611485565b815201611b0b611485565b81525050565b611b19611aeb565b90565b60005b828110611b2b57505050565b602090611b36611b11565b8184015201611b1f565b90611b65611b4d83611ac7565b92602080611b5b8693610a72565b9201910390611b1c565b565b611b7160406100dd565b90565b90611b86611b81836100f2565b6100dd565b918252565b60007f4950205479706500000000000000000000000000000000000000000000000000910152565b611bbd6007611b74565b90611bca60208301611b8b565b565b611bd4611bb3565b90565b634e487b7160e01b600052603260045260246000fd5b5190565b90611bfb82611bed565b811015611c0c576020809102010190565b611bd7565b60007f4a7572697364696374696f6e0000000000000000000000000000000000000000910152565b611c43600c611b74565b90611c5060208301611c11565b565b611c5a611c39565b90565b60007f526567697374726174696f6e2044617465000000000000000000000000000000910152565b611c8f6011611b74565b90611c9c60208301611c5d565b565b611ca6611c85565b90565b90565b611cc0611cbb611cc592611ca9565b6103c3565b6102e6565b90565b60007f44657461696c7300000000000000000000000000000000000000000000000000910152565b611cfa6007611b74565b90611d0760208301611cc8565b565b611d11611cf0565b90565b90565b611d2b611d26611d3092611d14565b6103c3565b6102e6565b90565b91611e02611eb092611d43611aa3565b50611db1611d62611d5c611d576004611aab565b611b40565b96612fe3565b611d8b611d6d611b67565b91611d82611d79611bcc565b60008501610d6f565b60208301610d6f565b611dab8791600090611da5611d9f83611366565b85611bf1565b52611366565b90611bf1565b5150611ddc611dbe611b67565b91611dd3611dca611c52565b60008501610d6f565b60208301610d6f565b611dfc8591600190611df6611df083610ca6565b85611bf1565b52610ca6565b90611bf1565b5150611e5f611e1042613280565b611e39611e1b611b67565b91611e30611e27611c9e565b60008501610d6f565b60208301610d6f565b611e598591600290611e53611e4d83611cac565b85611bf1565b52611cac565b90611bf1565b5150611e8a611e6c611b67565b91611e81611e78611d09565b60008501610d6f565b60208301610d6f565b611eaa8391600390611ea4611e9e83611d17565b85611bf1565b52611d17565b90611bf1565b515090565b611ebf60406100dd565b90565b60007f746f6b656e446174610000000000000000000000000000000000000000000000910152565b611ef46009611b74565b90611f0160208301611ec2565b565b611f0b611eea565b90565b52565b67ffffffffffffffff8111611f295760208091020190565b61009e565b90611f40611f3b83611f11565b6100dd565b918252565b611f4f60406100dd565b90565b611f5a611f45565b9060208083611f67611485565b815201611f7261148a565b81525050565b611f80611f52565b90565b60005b828110611f9257505050565b602090611f9d611f78565b8184015201611f86565b90611fcc611fb483611f2e565b92602080611fc28693611f11565b9201910390611f83565b565b60007f736368656d614e616d6500000000000000000000000000000000000000000000910152565b612000600a611b74565b9061200d60208301611fce565b565b612017611ff6565b90565b60007f756e697175650000000000000000000000000000000000000000000000000000910152565b61204c6006611b74565b906120596020830161201a565b565b612063612042565b90565b5190565b9061207482612066565b811015612085576020809102010190565b611bd7565b60007f736368656d6156657273696f6e00000000000000000000000000000000000000910152565b6120bc600d611b74565b906120c96020830161208a565b565b6120d36120b2565b90565b60007f322e302e30000000000000000000000000000000000000000000000000000000910152565b6121086005611b74565b90612115602083016120d6565b565b61211f6120fe565b90565b9050519061212f8261034b565b565b9060208282031261214b5761214891600001612122565b90565b610080565b60209181520190565b60200190565b61217e61218760209361218c936121758161068e565b93848093610499565b9586910161069b565b610094565b0190565b5190565b60209181520190565b6121bc6121c56020936121ca936121b381612190565b93848093612194565b9586910161069b565b610094565b0190565b6121fe9160206121ed604083016000850151848203600086015261215f565b92015190602081840391015261219d565b90565b9061220b916121ce565b90565b60200190565b9061222861222183612066565b8092612150565b908161223960208302840194612159565b926000915b83831061224d57505050505090565b9091929394602061226f61226983856001950387528951612201565b9761220e565b930193019193929061223e565b916122a0926122936060820193600083019061163f565b6040818403910152612214565b90565b916020946122cb92946122c16123eb956122bb610c9e565b506115d9565b9592909192613612565b6122f36122d6611eb5565b916122eb6122e2611f03565b60008501610d6f565b858301611f0e565b916123e46123096123046003611d17565b611fa7565b93612362612315611eb5565b61232961232061200f565b60008301610d6f565b61233c61233461205b565b898301611f0e565b61235c879160009061235661235083611366565b8561206a565b52611366565b9061206a565b51506123bc61236f611eb5565b61238361237a6120cb565b60008301610d6f565b61239661238e612117565b898301611f0e565b6123b687916001906123b06123aa83610ca6565b8561206a565b52610ca6565b9061206a565b51506123de85916002906123d86123d283611cac565b8561206a565b52611cac565b9061206a565b51506115e5565b61240f600063b904db0395939561241a612403610075565b9788968795869461160f565b84526004840161227c565b03925af190811561245f57600091612431575b5090565b612452915060203d8111612458575b61244a81836100b4565b810190612131565b3861242d565b503d612440565b61167b565b61246f6101806100dd565b90565b600090565b600090565b606090565b606090565b606090565b61249560606100dd565b90565b600090565b606090565b6124aa61248b565b9060208080846124b8612498565b8152016124c3612498565b8152016124ce61249d565b81525050565b6124dc6124a2565b90565b606090565b6124ec610d14565b90565b600090565b6124fc612464565b90602080808080808080808080808d612513611485565b81520161251e611485565b815201612529611485565b815201612534612472565b81520161253f612477565b81520161254a61247c565b815201612555612481565b815201612560612486565b81520161256b6124d4565b8152016125766124df565b8152016125816124e4565b81520161258c6124ef565b81525050565b61259a6124f4565b90565b600311156125a757565b610637565b906125b68261259d565b565b906125c2906125ac565b9052565b6125d26125d791610427565b61058f565b90565b6125e490546125c6565b90565b60101c90565b6125f96125fe916125e7565b61058f565b90565b61260b90546125ed565b90565b61261860606100dd565b90565b90612669612660600061262c61260e565b9461264361263b8383016105a9565b838801610d80565b61265a6126518383016125da565b60208801610d80565b01612601565b60408401610d80565b565b6126749061261b565b90565b61268090610e16565b90565b61268c90612677565b90565b6126ac736c4e9fe1ae37a41e93cee429e8e1881abdcbb54f612683565b90565b6126b890610e32565b90565b905051906126c8826101af565b565b906020828203126126e4576126e1916000016126bb565b90565b610080565b6126f2906125ac565b90565b6126fe906126e9565b9052565b60ff1690565b61271190612702565b9052565b5190565b60209181520190565b60200190565b612758916020612747604083016000850151848203600086015261215f565b92015190602081840391015261219d565b90565b9061276591612728565b90565b60200190565b9061278261277b83612715565b8092612719565b908161279360208302840194612722565b926000915b8383106127a757505050505090565b909192939460206127c96127c38385600195038752895161275b565b97612768565b9301930191939290612798565b5190565b60209181520190565b60200190565b5190565b60209181520190565b60200190565b6003111561280657565b610637565b90612815826127fc565b565b6128209061280b565b90565b61282c90612817565b9052565b612839906106f1565b9052565b906020806128619361285760008201516000860190612823565b0151910190612830565b565b906128708160409361283d565b0190565b60200190565b9061289761289161288a846127e9565b80936127ed565b926127f6565b9060005b8181106128a85750505090565b9091926128c16128bb6001928651612863565b94612874565b910191909161289b565b6128fb9160206128ea604083016000850151848203600086015261215f565b92015190602081840391015261287a565b90565b90612908916128cb565b90565b60200190565b9061292561291e836127d6565b80926127da565b9081612936602083028401946127e3565b926000915b83831061294a57505050505090565b9091929394602061296c612966838560019503875289516128fe565b9761290b565b930193019193929061293b565b5190565b60209181520190565b60200190565b906020806129b0936129a660008201516000860190611625565b0151910190611632565b565b906129bf8160409361298c565b0190565b60200190565b906129e66129e06129d984612979565b809361297d565b92612986565b9060005b8181106129f75750505090565b909192612a10612a0a60019286516129b2565b946129c3565b91019190916129ea565b5190565b60209181520190565b60200190565b90612a3a81602093611625565b0190565b60200190565b90612a61612a5b612a5484612a1a565b8093612a1e565b92612a27565b9060005b818110612a725750505090565b909192612a8b612a856001928651612a2d565b94612a3e565b9101919091612a65565b612ad49160406060820192612ab260008201516000850190612830565b612ac460208201516020850190612830565b0151906040818403910152612a44565b90565b5190565b60209181520190565b60200190565b60091115612af457565b610637565b90612b0382612aea565b565b612b0e90612af9565b90565b612b1a90612b05565b9052565b90602080612b4293612b3860008201516000860190612b11565b0151910190611632565b565b90612b5181604093612b1e565b0190565b60200190565b90612b78612b72612b6b84612ad7565b8093612adb565b92612ae4565b9060005b818110612b895750505090565b909192612ba2612b9c6001928651612b44565b94612b55565b9101919091612b7c565b612bc0612bbb612bc592612702565b6103c3565b612702565b90565b612bd190612bac565b9052565b90612cd690610180610160612cb7612ca3612c8f612c7d612c6b612c35612c23612c118c60006101a08d019101518c600081840391015261215f565b60208d01518b820360208d015261215f565b60408c01518a820360408c015261215f565b612c4760608c015160608b01906126f5565b612c5960808c015160808b0190612708565b60a08b015189820360a08b015261276e565b60c08a015188820360c08a0152612911565b60e089015187820360e08901526129c9565b610100880151868203610100880152612a95565b610120870151858203610120870152612b5b565b94612ccc61014082015161014086019061298c565b0151910190612bc8565b90565b612cef9160208201916000818403910152612bd5565b90565b969194612d6f9395612d79979592612d0861135e565b50612d11612592565b9960008b015260208a0152612d2a600060608b016125b8565b6040890152610120880152610100870152612d45600061266b565b612d51600082016110a2565b612d696040612d62602085016110a2565b93016110a2565b926139fe565b60c0850152613e90565b60a0820152612dbf612d91612d8c61268f565b6126af565b916372b5bea76020612da9612da461268f565b6126af565b63d23a7ab190612db7610075565b95869261160f565b82528180612dcf60048201610c59565b03915afa918215612e9157612e1294602094600094612e5c575b5090612e079192939093612dfb610075565b9687958694859361160f565b835260048301612cd9565b03925af1908115612e5757600091612e29575b5090565b612e4a915060203d8111612e50575b612e4281836100b4565b8101906126ca565b38612e25565b503d612e38565b61167b565b612e0792919450612e8290863d8111612e8a575b612e7a81836100b4565b810190612131565b939091612de9565b503d612e70565b61167b565b606090565b60007f504154454e540000000000000000000000000000000000000000000000000000910152565b612ecd6006611b74565b90612eda60208301612e9b565b565b612ee4612ec3565b90565b60007f434f505952494748540000000000000000000000000000000000000000000000910152565b612f196009611b74565b90612f2660208301612ee7565b565b612f30612f0f565b90565b60007f54524144454d41524b0000000000000000000000000000000000000000000000910152565b612f656009611b74565b90612f7260208301612f33565b565b612f7c612f5b565b90565b60007f4c4943454e534500000000000000000000000000000000000000000000000000910152565b612fb16007611b74565b90612fbe60208301612f7f565b565b612fc8612fa7565b90565b612fd56000611b74565b90565b612fe0612fcb565b90565b612feb612e96565b5080613000612ffa600061065c565b9161065c565b1461307d5780613019613013600161065c565b9161065c565b14613071578061303261302c600261065c565b9161065c565b146130655761304a613044600361065c565b9161065c565b1461305a57613057612fd8565b90565b613062612fc0565b90565b5061306e612f74565b90565b5061307a612f28565b90565b50613086612edc565b90565b60007f3000000000000000000000000000000000000000000000000000000000000000910152565b6130bb6001611b74565b906130c860208301613089565b565b6130d26130b1565b90565b6130de906102e6565b60001981146130ed5760010190565b610cc2565b90565b61310961310461310e926130f2565b6103c3565b6102e6565b90565b634e487b7160e01b600052601260045260246000fd5b613133613139916102e6565b916102e6565b908115613144570490565b613111565b67ffffffffffffffff811161316757613163602091610094565b0190565b61009e565b9061317e61317983613149565b6100dd565b918252565b369037565b906131ad6131958361316c565b926020806131a38693613149565b9201910390613183565b565b6131be6131c4919392936102e6565b926102e6565b82039182116131cf57565b610cc2565b6131e06131e6916102e6565b916102e6565b9081156131f1570690565b613111565b90565b61320d613208613212926131f6565b6103c3565b6102e6565b90565b61322961322461322e926102e6565b6103c3565b612702565b90565b60ff60f81b1690565b60f81b90565b61325461324f61325992612702565b61323a565b613231565b90565b9061326682612190565b81101561327857600160209102010190565b611bd7565b90565b613288612e96565b508061329d6132976000611366565b916102e6565b146133955790816132ac610c9e565b5b836132c16132bb6000611366565b916102e6565b146132e9576132d26132e3916130d5565b936132dd600a6130f5565b90613127565b926132ad565b9092506132f581613188565b905b8361330b6133056000611366565b916102e6565b1461338657613327613380916133216001610ca6565b906131af565b9361335f61335a613355603061335061334a86613344600a6130f5565b906131d4565b916131f9565b610cd8565b613215565b613240565b61336f8491879060001a9261325c565b5361337a600a6130f5565b90613127565b926132f7565b5061339291925061327d565b90565b5061339e6130ca565b90565b606090565b905090565b60207f7273696f6e223a22322e302e30222c22696d616765223a220000000000000000917f7b22736368656d614e616d65223a22756e69717565222c22736368656d61566560008201520152565b613405603880926133a6565b61340e816133ab565b0190565b61343761342e926020926134258161068e565b948580936133a6565b9384910161069b565b0190565b6000601160f91b910152565b613453600180926133a6565b61345c8161343b565b0190565b61347b91613470613476926133f9565b90613412565b613447565b90565b90565b613489612fcb565b90565b905090565b6134b66134ad926020926134a481612190565b9485809361348c565b9384910161069b565b0190565b60006816113730b6b2911d1160b91b910152565b6134da600980926133a6565b6134e3816134ba565b0190565b916135006134fb61350b9461350694613491565b6134ce565b90613491565b613447565b90565b60006f16113232b9b1b934b83a34b7b7111d1160811b910152565b613535601080926133a6565b61353e8161350e565b0190565b9161355b6135566135669461356194613491565b613529565b90613491565b613447565b90565b60007f2c00000000000000000000000000000000000000000000000000000000000000910152565b61359d600180926133a6565b6135a681613569565b0190565b60007f7d00000000000000000000000000000000000000000000000000000000000000910152565b6135de600180926133a6565b6135e7816135aa565b0190565b916136046135ff61360f9461360a94613491565b613591565b90613491565b6135d2565b90565b9061373f9261363e61364d613718946136296133a1565b50613632610075565b92839160208301613460565b602082018103825203826100b4565b9161365f61365a8261347e565b612190565b61367261366c6000611366565b916102e6565b116000146137b45761368661368b9161347e565b614231565b5b9061369e6136998261347e565b612190565b6136b16136ab6000611366565b916102e6565b116000146137a6576136c56136ca9161347e565b614231565b5b906136d581612190565b6136e86136e26000611366565b916102e6565b11613773575b506136f881612190565b61370b6137056000611366565b916102e6565b11613742575b5092614872565b91613730613724610075565b938492602084016135eb565b602082018103825203826100b4565b90565b9061376d9061375e613752610075565b93849260208401613542565b602082018103825203826100b4565b38613711565b909161379f90613790613784610075565b938492602084016134e7565b602082018103825203826100b4565b90386136ee565b506137af613481565b6136cb565b506137bd613481565b61368c565b606090565b90565b6137de6137d96137e3926137c7565b6103c3565b6102e6565b90565b6137f060406100dd565b90565b60007f5552490000000000000000000000000000000000000000000000000000000000910152565b6138256003611b74565b90613832602083016137f3565b565b61383c61381b565b90565b52565b9061384c826127d6565b81101561385d576020809102010190565b611bd7565b60007f5552495375666669780000000000000000000000000000000000000000000000910152565b6138946009611b74565b906138a160208301613862565b565b6138ab61388a565b90565b60007f637573746f6d697a696e675f6f76657272696465730000000000000000000000910152565b6138e06015611b74565b906138ed602083016138ae565b565b6138f76138d6565b90565b60007f6f76657272696465730000000000000000000000000000000000000000000000910152565b61392c6009611b74565b90613939602083016138fa565b565b613943613922565b90565b60007f726f79616c746965730000000000000000000000000000000000000000000000910152565b6139786009611b74565b9061398560208301613946565b565b61398f61396e565b90565b90565b6139a96139a46139ae92613992565b6103c3565b6102e6565b90565b90565b6139c86139c36139cd926139b1565b6103c3565b6102e6565b90565b90565b6139e76139e26139ec926139d0565b6103c3565b6102e6565b90565b60016139fb91016102e6565b90565b91613ce09193613a3e91613a106137c2565b50613a35613a30613a20876127d6565b613a2a60086137ca565b90610cd8565b6115a6565b95919091614aa7565b613a9181613a6b613a4d6137e6565b91613a62613a59613834565b60008501610d6f565b6020830161383f565b613a8b8691600090613a85613a7f83611366565b85613842565b52611366565b90613842565b5150613ae681613ac0613aa26137e6565b91613ab7613aae6138a3565b60008501610d6f565b6020830161383f565b613ae08691600190613ada613ad483610ca6565b85613842565b52610ca6565b90613842565b5150613b3b81613b15613af76137e6565b91613b0c613b036138ef565b60008501610d6f565b6020830161383f565b613b358691600290613b2f613b2983611cac565b85613842565b52611cac565b90613842565b5150613b9081613b6a613b4c6137e6565b91613b61613b5861393b565b60008501610d6f565b6020830161383f565b613b8a8691600390613b84613b7e83611d17565b85613842565b52611d17565b90613842565b5150613be581613bbf613ba16137e6565b91613bb6613bad613987565b60008501610d6f565b6020830161383f565b613bdf8691600490613bd9613bd383611aab565b85613842565b52611aab565b90613842565b5150613c3a81613c14613bf66137e6565b91613c0b613c0261200f565b60008501610d6f565b6020830161383f565b613c348691600590613c2e613c2883613995565b85613842565b52613995565b90613842565b5150613c8f81613c69613c4b6137e6565b91613c60613c576120cb565b60008501610d6f565b6020830161383f565b613c898691600690613c83613c7d836139b4565b85613842565b526139b4565b90613842565b5150613cba613c9c6137e6565b91613cb1613ca8611f03565b60008501610d6f565b6020830161383f565b613cda8491600790613cd4613cce836139d3565b85613842565b526139d3565b90613842565b5150613cec6000611366565b5b80613d08613d02613cfd856127d6565b6102e6565b916102e6565b1015613d5357613d4e90613d47613d20848390613842565b5185613d366008613d3186916137ca565b610cd8565b91613d418383613842565b52613842565b51506139ef565b613ced565b505090565b606090565b613d6760406100dd565b90565b90613d7482612715565b811015613d85576020809102010190565b611bd7565b7f7b22736368656d614e616d65223a22756e69717565222c22736368656d61566560008201527f7273696f6e223a22322e302e30222c22636f7665725f696d616765223a7b227560208201526040643936111d1160d91b910152565b613df2604580926133a6565b613dfb81613d8a565b0190565b600062227d7d60e81b910152565b613e19600380926133a6565b613e2281613dff565b0190565b613e4191613e36613e3c92613de6565b90613412565b613e0d565b90565b60007f636f6c6c656374696f6e496e666f000000000000000000000000000000000000910152565b613e76600e611b74565b90613e8360208301613e44565b565b613e8d613e6c565b90565b613e98613d58565b50613fff613fb0613fab613f97613fa6613ecc613ec7613eb788612715565b613ec16003611d17565b90610cd8565b6114e4565b96613f26613ed8613d5d565b613eec613ee361200f565b60008301610d6f565b613f00613ef761205b565b60208301611f0e565b613f208a91600090613f1a613f1483611366565b85613d6a565b52611366565b90613d6a565b5150613f81613f33613d5d565b613f47613f3e6120cb565b60008301610d6f565b613f5b613f52612117565b60208301611f0e565b613f7b8a91600190613f75613f6f83610ca6565b85613d6a565b52610ca6565b90613d6a565b5150613f8b610075565b92839160208301613e26565b602082018103825203826100b4565b61327d565b61347e565b613fd9613fbb613d5d565b91613fd0613fc7613e85565b60008501610d6f565b60208301611f0e565b613ff98491600290613ff3613fed83611cac565b85613d6a565b52611cac565b90613d6a565b515061400b6000611366565b5b8061402761402161401c85612715565b6102e6565b916102e6565b10156140725761406d9061406661403f848390613d6a565b518561405560036140508691611d17565b610cd8565b916140608383613d6a565b52613d6a565b51506139ef565b61400c565b505090565b61408661408c919392936102e6565b926102e6565b916140988382026102e6565b9281840414901517156140a757565b610cc2565b6140b69051613231565b90565b601160f91b90565b601760fa1b90565b6140dd6140d86140e2926137c7565b6103c3565b612702565b90565b90565b6140fc6140f7614101926140e5565b6103c3565b612702565b90565b61411861411361411d926130f2565b6103c3565b612702565b90565b90565b61413761413261413c92614120565b6103c3565b612702565b90565b90565b61415661415161415b9261413f565b6103c3565b612702565b90565b60f81c90565b6141706141759161415e565b612bac565b90565b90565b61418f61418a61419492614178565b6103c3565b612702565b90565b607560f81b90565b600360fc1b90565b6141bb6141b66141c092611aa8565b6103c3565b612702565b90565b6141e2906141dc6141d66141e794612702565b91612702565b90610f55565b612702565b90565b90565b6142016141fc614206926141ea565b6103c3565b612702565b90565b601d60fa1b90565b603960f91b90565b603760f91b90565b603360f91b90565b603160f91b90565b9061423a6133a1565b5061424482612190565b90816142596142536000611366565b916102e6565b146147035761427a6142758361426f60066139b4565b90614077565b613188565b6142846000611366565b9161428f6000611366565b5b806142a361429d876102e6565b916102e6565b10156146f957614327906142c06142bb88839061325c565b6140ac565b806142d26142cc6140b9565b91613231565b1480156146e0575b60001461432c576142e96140c1565b956143048691976142f9896130d5565b989060001a9261325c565b5394614320859196614315886130d5565b979060001a9261325c565b535b6139ef565b614290565b8061435061434a61434561434060086140c9565b613240565b613231565b91613231565b146000146143a757506143616140c1565b9461437c859196614371886130d5565b979060001a9261325c565b53614385614229565b946143a0859196614395886130d5565b979060001a9261325c565b535b614322565b806143cb6143c56143c06143bb600c6140e8565b613240565b613231565b91613231565b1460001461442257506143dc6140c1565b946143f78591966143ec886130d5565b979060001a9261325c565b53614400614221565b9461441b859196614410886130d5565b979060001a9261325c565b535b6143a2565b8061444661444061443b614436600a614104565b613240565b613231565b91613231565b1460001461449d57506144576140c1565b94614472859196614467886130d5565b979060001a9261325c565b5361447b614219565b9461449685919661448b886130d5565b979060001a9261325c565b535b61441d565b806144c16144bb6144b66144b1600d614123565b613240565b613231565b91613231565b1460001461451857506144d26140c1565b946144ed8591966144e2886130d5565b979060001a9261325c565b536144f6614211565b94614511859196614506886130d5565b979060001a9261325c565b535b614498565b8061453c61453661453161452c6009614142565b613240565b613231565b91613231565b14600014614593575061454d6140c1565b9461456885919661455d886130d5565b979060001a9261325c565b53614571614209565b9461458c859196614581886130d5565b979060001a9261325c565b535b614513565b61459c81614164565b6145af6145a9602061417b565b91612702565b106000146146bf57614650906145c36140c1565b966145de8791986145d38a6130d5565b999060001a9261325c565b536145e7614197565b966146028791986145f78a6130d5565b999060001a9261325c565b5361460b61419f565b9661462687919861461b8a6130d5565b999060001a9261325c565b5361462f61419f565b9661464a87919861463f8a6130d5565b999060001a9261325c565b53614164565b61468061466f61466a8361466460046141a7565b906141c3565b614c18565b9161467a600f6141ed565b16614c18565b909561469c869197614691896130d5565b989060001a9261325c565b53946146b88591966146ad886130d5565b979060001a9261325c565b535b61458e565b946146da8591966146cf886130d5565b979060001a9261325c565b536146ba565b50806146f36146ed6140c1565b91613231565b146142da565b5093509150815290565b91905090565b60006d2261747472696275746573223a5b60901b910152565b61472c600e611b74565b9061473960208301614709565b565b614743614722565b90565b60006e3d913a3930b4ba2fba3cb832911d1160891b910152565b61476c600f80926133a6565b61477581614746565b0190565b60006a1116113b30b63ab2911d1160a91b910152565b61479b600b80926133a6565b6147a481614779565b0190565b600061227d60f01b910152565b6147c1600280926133a6565b6147ca816147a8565b0190565b6147f46147ff936147ee6147e96147f9946148049896613491565b614760565b90613412565b61478f565b90613412565b6147b5565b90565b6148149061481992613491565b613591565b90565b60007f5d00000000000000000000000000000000000000000000000000000000000000910152565b614850600180926133a6565b6148598161481c565b0190565b61486a9061486f92613491565b614844565b90565b61487a6133a1565b5061488361473b565b9061488e6000611366565b915b826148ab6148a56148a085611bed565b6102e6565b916102e6565b1015614975576148fb60006148c1848690611bf1565b510151916148ec60206148d5868890611bf1565b5101516148e0610075565b948593602085016147ce565b602082018103825203826100b4565b918061492a61492461491f61490f86611bed565b6149196001610ca6565b906131af565b6102e6565b916102e6565b1061493f575b614939906139ef565b91614890565b9161495e61496d61493992614952610075565b92839160208301614807565b602082018103825203826100b4565b929050614930565b61499392506149a29150614987610075565b9283916020830161485d565b602082018103825203826100b4565b90565b606090565b67ffffffffffffffff81116149c25760208091020190565b61009e565b906149d96149d4836149aa565b6100dd565b918252565b6149e860406100dd565b90565b600090565b6149f86149de565b9060208083614a056149eb565b815201614a10612498565b81525050565b614a1e6149f0565b90565b60005b828110614a3057505050565b602090614a3b614a16565b8184015201614a24565b90614a6a614a52836149c7565b92602080614a6086936149aa565b9201910390614a21565b565b614a7660406100dd565b90565b90614a839061280b565b9052565b90614a91826127e9565b811015614aa2576020809102010190565b611bd7565b91614b64614bb092614ab76149a5565b50614b18614acd614ac86003611d17565b614a45565b95614af2600091614ae9614adf614a6c565b9360008501614a79565b60208301610d80565b614b128791600090614b0c614b0683611366565b85614a87565b52611366565b90614a87565b5150614b3e600191614b35614b2b614a6c565b9360008501614a79565b60208301610d80565b614b5e8591600190614b58614b5283610ca6565b85614a87565b52610ca6565b90614a87565b5150614b8a600291614b81614b77614a6c565b9360008501614a79565b60208301610d80565b614baa8391600290614ba4614b9e83611cac565b85614a87565b52611cac565b90614a87565b515090565b600090565b90565b614bd1614bcc614bd692614bba565b6103c3565b612702565b90565b614be5614beb91612702565b91612702565b019060ff8211614bf757565b610cc2565b614c10614c0b614c15926131f6565b6103c3565b612702565b90565b614c20614bb5565b5080614c35614c2f600a614104565b91612702565b10600014614c5c57614c54614c5991614c4e6030614bfc565b90614bd9565b613240565b90565b614c73614c7891614c6d6057614bbd565b90614bd9565b613240565b9056fea26469706673582212203c1039b86cf152fb6aae7208ef21d2b43575983b634d807a3089ba2e527df8c164736f6c63430008180033",
  "linkReferences": {},
  "deployedLinkReferences": {}
}